S0120000736F635F7468756E6465722E73333744
S21400000000000120054500000145000001450000F4
S214000010C91F000001450000014500000145000021
S21400002001450000014500000145000001450000B3
S21400003001450000014500000145000001450000A3
S214000040014500005D7D00000145000001450000FF
S214000050C5750000A17D0000697D00006D7D000073
S214000060617D0000014500000145000001450000DB
S2140000700145000001450000014500000145000063
S2140000800145000001450000014500000145000053
S2140000900145000001450000014500000145000043
S2140000A00145000001450000014500000145000033
S2140000B0A57D0000657D000001450000E17D000093
S2140000C001450000B565000001450000014500003F
S2140000D00145000001450000014500000145000003
S2140000E001450000014500000145000001450000F3
S2140000F001450000014500000145000001450000E3
S21400010001450000014500000145000010B5054C02
S214000110237833B9044B13B10448AFF300800123AE
S214000120237010BDC00000200000000094C5000031
S21400013008B5034B1BB103490348AFF3008008BD65
S21400014000000000C400002094C50000A3F5803A1B
S214000150704700BF174B002B08BF134B9D46FFF799
S214000160F5FF00218B460F461348144A121A0AF070
S2140001707FF80E4B002B00D098470D4B002B00D07D
S21400018098470020002104000D000D48002802D0EA
S2140001900C48AFF300800AF039F82000290003F07D
S2140001A08FFA0AF01FF800BF0000080000000000E9
S2140001B00000000000000120C00000207C19002084
S2140001C00000000000000000BFF34F8F0549064BFB
S2140001D0CA6802F4E0621343CB60BFF34F8F00BFE0
S2140001E0FDE700BF00ED00E00400FA0510B502468A
S2140001F000B3114B1968888890421BD398889042A8
S21400020081BF0968996001209880998898680024C1
S21400021028B904B198604FF6FF729A8009E08A42C6
S21400022004D00131006889B20124F1E70CB19A804C
S214000230986010BD0020FCE7E8060020114A916A8D
S21400024001F1704303F5F813B3F5006F0CD2D2F842
S2140002502838A3F17E62A2F58432B2F5104F03D29D
S2140002600968094A914203D00023037083607047EF
S2140002701968064A9142F7D1012202709A684260D4
S2140002809B69F3E70000E10FAD1007B007B0CD5E45
S21400029010B50C4630B90448FFF7D0FF04300423ED
S2140002A02060A380002010BD9C010020064BD3F8E0
S2140002B02828A2F17E63A3F58433B3F5104F01D24C
S2140002C0536A1847002070470000E10F0D4B10B42A
S2140002D0D3F82848A4F17E63A3F58433B3F5104F12
S2140002E00BD2246BA4F17E63A3F58433B3F5104FD1
S2140002F003D2A36B5DF8044B184740F201105DF87B
S214000300044B70470000E10F0B4BD3F82828A2F1EE
S2140003107E63A3F58433B3F5104F09D2126BA2F1B6
S2140003207E63A3F58433B3F5104F01D2D36B184721
S21400033040F20110704700BF0000E10F024BD3F8F7
S214000340F80080B2800270470081E00F7FB50F4A48
S21400035003466D4602F11006106851682C4603C429
S2140003600832B2422546F7D15A1E0DF10F010F335F
S21400037011F8010912F8014F844204D19A42F7D1CC
S214000380012004B070BD0020FBE700BF08A40000F9
S21400039070B5154E306810BB144B154CE41A154B4F
S2140003A01C4424F4FF6424F00704FFF7C7FF8442CC
S2140003B014D2656BA5B1FFF7C1FF854210D2FFF7D7
S2140003C0BDFF05F1400383420AD82846FFF7BEFF6B
S2140003D030B1EB6933F0080302D03460306870BD8A
S2140003E004F50064E1E700BF400100201000002093
S2140003F0C0000020DFCD0000034B044A9979117538
S21400040000221A60704700BF8C0D00208006002076
S21400041030B500228BB01346D91003F00704415CB8
S2140004202141CC0741BF0AA98918013201F8283CAE
S2140004300133252BF0D10E4C0023D91003F007050D
S214000440415C2941C9075FBF0AADB3FBF2F102FB6D
S2140004501131491948BFD9B203F1010358BF11F849
S214000460281C04F8011B252BE7D10BB030BD00BFBC
S214000470AA06002010B5034CA01DFFF7C9FF0023F5
S214000480236010BD8C0D0020084A10B5136840F29A
S214000490E24404FB01316043536800F5807001EBD1
S2140004A0500118441160506010BD00BF8006002047
S2140004B0D0B50C4CE38C0A20584309F0F7FB0646EF
S2140004C0A08C0F4609F0F2FB074B002209F058FCFF
S2140004D002460B463046394609F07CFD09F062FEBE
S2140004E02083D0BD800600200000F43F10B5094CE4
S2140004F0B4F80710A079FFF7C7FFA368064AB4F858
S2140005000D10D184C3F30F239384FFF7D1FF00238C
S214000510236010BD8C0D002080060020837DDB0745
S21400052001D5808A7047D0E901239B1A44BF828A8E
S2140005309B1898B270470000084BD3F8F020D3F809
S214000540F4300270110A120C82701A0AC2701A0C69
S2140005501B0E417002714371704700BF0081E00FAF
S2140005604369416C80691439DA1DB2FBF1F201323D
S21400057003EBC202043000EB4200DA1CB2FBF1F2DD
S21400058003EBC2030333B3FBF1F3023301FB0300B7
S2140005907047F7B507460E4600257C6CA8196442DE
S2140005A080EA06031C4003D02C46204603B0F0BD6C
S2140005B0FB6B01225B6901A99847019B0133F4D1CB
S2140005C00435EAE703460846EFF3108172B6DB6BA4
S2140005D0014ADB6811601847840D002030B5446876
S2140005E000234FF0FF329C4202D10023037230BD3D
S2140005F0016801EBC30541F833206A600133F2E776
S2140006002DE9F0434668002E47D0056898464FF01F
S214000610000CA946AE4655F83C40C4F31307013417
S2140006200CF1010C01D0B94218D0B4450EF1080EF9
S214000630F1D12F46002403E0B44207F1080713D097
S21400064055F83430013304F10104F5D1C1F3130138
S21400065041EA0851C7E90012BDE8F08341EA0851B3
S214000660CEE90012BDE8F083B8F1030F15D00023E1
S21400067003E0B34209F108090FD055F83340C4F33C
S2140006800754032C03F10103F3D1C1F3130343EA28
S2140006900853C9E90032BDE8F08301230372BDE8C0
S2140006A0F08300BF064B5A685B68064B41F6713212
S2140006B01A649A6822F001029A600020704700BF10
S2140006C000300E4000000E40034B9A6822F00102F4
S2140006D09A6000221A64704700000E4070470000BF
S2140006E02C4B024641F67130196C30B518642A4816
S2140006F044684068986840F00100986001201A61DC
S214000700D860D869440789B2154608D59A6822F099
S21400071001029A6009B100221A64204810E0022003
S2140007201F4CD860D869C00700D554B9D86910F0F6
S21400073002000BD09A6822F001029A6019B9194893
S21400074030BD013CEEE700221A64F8E73CB99A682F
S21400075022F001029A600029F1D01864EFE79C6845
S21400076024F001049C6001B118640F4BD3F8E43008
S2140007701B0E0A3303F01F03012101FA03F323F0D3
S21400078003031A449542DBD055F8043B0133F9D0F5
S2140007900648D5E700000E4000300E4021E000F08D
S2140007A08096980024E000F00081E00F0EE000F054
S2140007B0036813F07E0F03D1406820F07C4070473A
S2140007C013F078001CBF03F07F03D81F704737B5BF
S2140007D001F10C044369054601A901222046984709
S2140007E0BDF8043000930122AB696946204698475D
S2140007F003B030BD202A0B681EBF4FF0FF3191407A
S2140008008B43590801F055315B1A03F033319B08CE
S21400081003F033330B44017803EB13130A4403F05D
S2140008200F334FF001314B43A2EB13630370704755
S21400083037B504461B22011D00250DF107008DF873
S2140008400750FFF7D7FF63689DF80720B2EBD36F1A
S21400085003D123F0784003B030BD1B2204F1080119
S2140008608DF80750FFF7C6FFA0689DF80730B3EB7A
S214000870D06F06BFC04320F078404FF0FF30EAE765
S21400088003684BF29A22B2EB134F10B5044613D10D
S2140008909BB2012B13D1FFF7CBFF01300CD0E068E1
S2140008A04FF6FF72B2EB104F4FEA104309D180B2F9
S2140008B0C01A18BF012010BD2368013303D00420DE
S2140008C0F9E70220F7E70320F5E700000C4B10B528
S2140008D00C4CE41A0C4B1C4424F4FF6424F007046C
S2140008E0FFF72CFDA04202D80024204610BD20466B
S2140008F0FFF7C6FF0128F8D904F50064F0E700BF4B
S21400090010000020C0000020DFCD0000F0B5054636
S21400091087B00026EC69013CB44203D80C4620465A
S21400092007B0F0BD01B14C1E6F6C2868EB6B05225A
S2140009305B6901A907FB0400984701A8FFF7A0FF21
S2140009400128ECD901362146E4E7F0B5046887B003
S21400095006460025091B446CB1FBF4F4F3693068C5
S214000960776C5A1E954206D3716C306801FB040002
S214000970143007B0F0BD0134B4FBF3F103FB1144AF
S214000980F36B05225B6901A907FB0400984701A8E1
S214000990FFF776FF0128E7D90135DFE72DE9F04FAD
S2140009A014469946C36B89B007465B6960680D4676
S2140009B0012205A99847FB6B01225B6904A928461A
S2140009C09847059B5A1C06D10020A0756075A36049
S2140009D009B0BDE8F08F0122A275227E049904EBCF
S2140009E0C2024FF0000CD561A2F820C06668AE4285
S2140009F0C1F3D31001F07F020BD14FF0FF3320601C
S214000A002275A360237D043B022B25D80020A07509
S214000A10DEE726688642207D18BF84F816C090421E
S214000A201CBF0020A07503F07F0001288CBF0020AB
S214000A300120012A8CBF0022012290421CBF002206
S214000A40A27511F07E0F03F07E0300F0E880002B05
S214000A50D8D10023A375D5E711F07E0F0FD1FB6B1D
S214000A6002225B6906A92846984706A8FFF7A0FE5B
S214000A70237D032B3AD8DFE803F03434040904A8B6
S214000A80F4E7227E04EBC202CC211184664AD35CD2
S214000A90129A049E1370237E16F07E0B04EBC3039B
S214000AA00CBFC6F3C16600265FFA86FAB3F820804C
S214000AB083F822A0BBF1000F00F08C8000231B22DD
S214000AC004A906A88DF81830FFF794FE9DF8183094
S214000AD0049AB3EBD26F0CBF012300236375042284
S214000AE094E0227E04EBC2021084CFE7227E04EB61
S214000AF0C202062B1084C9D90123C9E794F816B0A0
S214000B00BBF1000F00F08880B8F1000F09D1DEB10C
S214000B10617E0123E37500293CD19E4218D166769A
S214000B2014E07B6CA818594285EA000C1CEA010FF9
S214000B301CBF0021A175591E01405B1A984569D853
S214000B40A37D002BE3D167E0E37DA3B94FF0000B54
S214000B5028F003002844104418F0030F7B6C18BFDD
S214000B6004305B4285EA0002134203D02946384629
S214000B70FFF7EBFEA060A27D12B123694344236118
S214000B80237E012B0DD801332376B9F1000F0BD14C
S214000B90A07D1DE7012EEED0BAF1030F08BFA376A5
S214000BA0D4E70023A375F3E7002AF1D0E37D002BFA
S214000BB0EED0BBF1000FEBD1032EE9D0A1684B1CA1
S214000BC0E6D0129B0093224601233846FFF7E6FE46
S214000BD0A075DDE7FB6B02225B6906A928469847ED
S214000BE0202206A90DF10F008DF80FB0FFF702FEC8
S214000BF01A2207A9FFF7FEFD9DF80F30079AB3EB00
S214000C00926F0CBF0123002363750822637D002BBF
S214000C107FF474AF0023A3754FF0000BABE7002BF7
S214000C203FF4F0AE15E700BFD0A4000013B50C46A5
S214000C30002121760093616813462246FFF7AEFE38
S214000C4018B1E37D03B1A07EA075A07D02B010BDF3
S214000C5070B5002586B004460562E369AB4202D84B
S214000C60206A06B070BD666C2068E36B05225B697F
S214000C7001A906FB0500984701A8FFF701FE012819
S214000C809EBF236A013323620135E6E7F0B50025EF
S214000C9087B004462E46E369B34202D8284607B01A
S214000CA0F0BD636C276803FB0677E36B05225B6980
S214000CB001A93846984701A8FFF7E2FD012809D8A0
S214000CC007F114012046FFF764FC636C143B834273
S214000CD008BF01350136DEE7F0B50446466CE36B27
S214000CE000685B6987B00D46052201A906FB050072
S214000CF0984701A8FFF7C4FD012804D801A8FFF70C
S214000D0097FD07B0F0BD29462046FFF7FFFD676C4C
S214000D10E36B064620685B69052201A907FB06000F
S214000D20984701A8FFF784FD431CEAD0B54238BFB8
S214000D300130E6E7034BD86B80F04000C0F380102C
S214000D40704700BF00300E4008B5FFF7F3FF20B134
S214000D50024AD2F8C830002BFBD108BD0000C643BB
S214000D6008B5FFF7F1FF024B5868C0F3014008BD15
S214000D7000300E400C4B984210D90C4B984210D9BC
S214000D80022201230A490B640A49D1F8003123F0F4
S214000D90807343EA0263C1F80031704700221346AD
S214000DA0F0E70122FBE700BF0048E8010090D0030F
S214000DB00000C84300400E400F4B5B680F4B30B539
S214000DC000221C46C9B21D798D4202D11D6885429B
S214000DD00DD20132052A03F10803F4D10322064995
S214000DE04B6823F0407343EA02634B6030BD04EB6C
S214000DF0C2025279F3E700BF00000E404CA5000087
S214000E0038B5054C41F67133256C2364FFF7D4FFE3
S214000E100DB10023236438BD00000E4042EA0323D0
S214000E20B3F5007F39D016D8B3F5807F31D007D818
S214000E305BB3012B1ED00022134603600A60704786
S214000E4040F201129342F6D1184BD3F824321A0E10
S214000E50C3F30743F1E7B3F5407F22D040F20132F7
S214000E6093420ED040F201229342E4D10F4BD3F8C6
S214000E70283202E00D4BD3F82432C3F30722DBB24C
S214000E80DBE70A4BD3F82832E1E7084BD3F81C32ED
S214000E90F3E7064BD3F81C32D9E7044BD3F82032DD
S214000EA0EBE7024BD3F82032D1E700BF0081E00F1A
S214000EB02F4B1A6FD96C11F0010F02F0060242D0C8
S214000EC0002A40D013284FD9143813288CBF10237B
S214000ED008232749013BCA6C180322F47F4240EAE4
S214000EE003231343CB64234BCA6C1B88C2F3032231
S214000EF02833013202EB820003EB5303B3FBF0F31B
S214000F00C86C013B072B28BF072320F0EE6040EAA1
S214000F10036343F48013CB64174BB3F90030002B04
S214000F2010DB2833500800EB420203EB5303B3FBFD
S214000F30F2F30A6D072B28BF072322F0700242EA5D
S214000F4003130B657047D96C01F00101114304D1FE
S214000F50092809D90A380928B8E7DB6C13F0010319
S214000F60B7D01AB92728B1E70423B2E70023B0E7C1
S214000F7000300E40F6060020F806002070B51D4D25
S214000F80D5F82828A2F17E63A3F58433B3F5104F75
S214000F90E0B004D34FF40174204660B070BD136B0C
S214000FA0002BF7D05B6A4FF4C07269460020984762
S214000FB004460028F0D140F20126D5F82828A2F1F0
S214000FC07E63A3F58433B3F5104FE3D2126BA2F120
S214000FD07E63A3F58433B3F5104FDBD2936A00210A
S214000FE068469847B042E8D040F20323984218BFBC
S214000FF00446D1E70000E10F104A0B46D2F8281845
S214001000A1F17E62A2F58432B2F5104F10B40FD271
S214001010096BA1F17E62A2F58432B2F5104F07D2B9
S2140010200C69074A0146A44600205DF8044B604759
S2140010304FF481705DF8044B704700BF0000E10F6D
S2140010402807002037B50446684680E8060003C82F
S214001050251D85E805002373069B0B4A2361BDF812
S2140010601C30A38200232360136853B119461B6803
S214001070002BFBD10C609088013080B2908003B0CA
S21400108030BD1460F7E700BFE006002037B50D4618
S2140010901446FFF7ABF870B1036973B1818A4FF657
S2140010A0FE72914209D10095ADF8044069460120D0
S2140010B0984703B030BD0120FBE70E20F9E703692F
S2140010C037B514460D46828A63B14FF6FE718A42E2
S2140010D008D100200090ADF804006946984728B172
S2140010E003B030BD2B6000202280F9E7009B2B6008
S2140010F0BDF804302380F3E738B50D461446FFF7F5
S21400110075F840B122462946FFF7D9FF10B92B687B
S21400111003B9208038BD0120FCE7000007B503793D
S2140011200193054A0368009306CA02230830FFF7B6
S21400113089FF03B05DF804FBC4A500002DE9F0416B
S214001140054688B09846036908460E4617469847EF
S214001150002869D1D8F804305B0A012B02464FEA12
S214001160530300F10100F8D898F8034098F80230CD
S2140011702403DB0203F4006304F480541C43B8F831
S2140011800030C3F30A032344540304F460441C44AD
S2140011902A4B03934FF0000827F078430DF1070021
S2140011A01B2202A902938DF80780FFF723FB9DF808
S2140011B00720029B8DF80780FF4343EAC26302A91B
S2140011C01B2227F0784704930297FFF713FB9DF83E
S2140011D00720029B6FEA044443EAC26305936FEA62
S2140011E014444FF0FF3306930794AB69012207A916
S2140011F006F110009847AB690446012205A906F1DE
S21400120008009847AB69404518BF0446012204A968
S214001210301D9847AB69404518BF0446012203A914
S2140012203046984700B934B13146284608B0BDE884
S214001230F041FFF7CCBA08B0BDE8F08101009AB2E1
S214001240034B5A6D12B95865A3F85810704700BF83
S2140012508006002070B50C4690B9FFF799F858B193
S214001260436B084D03F14006186859682A4603C2C6
S2140012700833B3421546F7D1034B23600423A380FB
S214001280002070BD44010020640100202DE9F041DB
S21400129016460546FFF742F9B04228BF304686B2EA
S2140012A00F46B046B8F1000F09D12EB1AB7DDA0774
S2140012B044BF23F00103AB753046BDE8F0812B68D0
S2140012C0AC8A69681C44641AA4B2444528BF4446E4
S2140012D02246384608F0BEFF6A682B68A98A224470
S2140012E0194427448A4238BF1346A8EB04041FFA61
S2140012F084F86B60D6E7F8B51F46038A04461646A0
S214001300EBB9C57DDDB10123013D0B700222C57529
S21400131000F11001FFF7BAFFE37D9BB1228ABA42C3
S21400132028BF3A4631462046FFF7B0FF238A1B1AED
S2140013302382E37D13B9638A1B1A6382F8BD0023F8
S2140013400B70EBE7638A2382E8E72DE9F041044659
S2140013500F461146FFF7E2F8A38A181A86B28E42A5
S21400136028BF0E46B046B8F1000F0BD13EB1D4E907
S21400137001329A4202BFA37D43F00103A3753046B3
S214001380BDE8F0812368A58AA0681D442D1AADB279
S214001390454528BF45462A46394608F05BFFA26801
S2140013A02368A18A2A4419442F448A4238BF134628
S2140013B0A8EB05051FFA85F8A360D4E7F8B5044640
S2140013C016461F4611B3FFF7A9F8A58A281A80B259
S2140013D0012829D9E37D63B1E068658A05702D0A86
S2140013E007D02268A38A01301344984228BF1046CB
S2140013F0F4E700236382A368E360022204F112018B
S2140014002046FFF7A2FFE37D0133E3753A463146F7
S2140014102046FFF79AFF638A03446382E37D13B98D
S214001420238A03442382F8BD0020FCE710B5044657
S21400143044EA010313F00303084609D1934201D19D
S214001440002010BD54F8231040F823100133F5E7B0
S2140014509200214608F0FEFEF2E7000013B503797D
S214001460124A03330446019300F14403009306CA6C
S21400147002231430FFF7E6FD238A0193E368009306
S21400148094E80600237A04F12C00FFF7DBFD237AAC
S21400149022792168A4F8450004F1470084F8443016
S2140014A002B0BDE8104008F0D5BE00BFBCA50000E5
S2140014B070B50C4C0C4B06460D46D4E9010183E88A
S2140014C003001846FFF72AFE084BD4E9040102225F
S2140014D01A7283E80300DE601D821846BDE870407D
S2140014E0FFF7BCBFACA4000044130020C8040020D3
S2140014F038B5202204460D460C30002108F0B8FE10
S2140015004FF0FF33C4E90035A36038BD2DE9F04F36
S2140015102DED028B0F4689B0044600254FF0FF31B3
S2140015201046C7F3130B904699468DF80B50FFF7FD
S214001530DFFF5F456AD1E1682B468B420DD0A2687B
S21400154002EBC30052F83320561C0FD0C2F313022E
S21400155093450BD141684D1C0AD1237C002B57D1F3
S214001560464809B0BDEC028BBDE8F08F0133E4E7D6
S2140015704046FFF7BDFF0DF10B0301224146204612
S214001580FFF754FB0028E8D09DF80B3089F80030B0
S2140015900020E6E72068361A606CB6FBF0F63FE0FF
S2140015A05046FFF7A5FF18EE102A0DF10B03514623
S2140015B02046FFF73BFB8446B8B1B91C03D0DAF8E7
S2140015C00030BB4211D19DF80B30DFF8B4E089F84B
S2140015D00030BEE80F0045460FC5BEE80F000FC539
S2140015E09EE8070085E807006546DAF8081032E04E
S2140015F0002DB5D05F45CBD199F80030D8F804203F
S214001600394604F10800FEF7FBFFC1E7BB1CA4D176
S214001610E66A701CBED1616A2046FFF777F9064677
S214001620BB1C18BF012308EE103ADFF854A0636A0B
S21400163025680193636C03FB0655E36B03A95B699E
S21400164005222846984703A8FFF71AF905F1140360
S2140016500093194600254A1C05D0636C009A5B422D
S2140016604A4013429CD031462046FFF74FF9019B73
S214001670B342BDD0002DBDD10646D8E70BE000F042
S214001680A00E00202DE9F04F4FF0FF3300258B46CB
S21400169000F108064FF6FF71C0E9091387B004464B
S2140016A0C362056205633046FEF798FF2046FFF7E3
S2140016B0CFFA00285BD1D4F824804FF6FF79C845CE
S2140016C014BF454600250027E3699F4252D32046B3
S2140016D0FFF7BEFA002833D1B34D2046FFF7D6FAFF
S2140016E007E12368E26B606C576901A9052200FBDD
S2140016F00530B84701A8FFF7C3F80128074603D00E
S214001700C31EDBB2012B12D829462046FFF7E4FAA7
S214001710012F2168676C024608BF0132E06B434622
S21400172007FB0511FFF70AFD2046FFF791FA013582
S214001730E3699D42D5D32046FFF78AFA0028BAD03F
S21400174000254FF6FF73C4E908534FF0FF38C14633
S2140017502F46E3699F423FD3A5EB0805012D5FD8CE
S214001760636A4FF6FF7293426FD1904DB5E704F16E
S2140017704008DDE7636CE26B2068D2F814C001A96C
S214001780052203FB0500E04701A8FFF779F80228C9
S2140017900FD0C84515D10BF10102606C216804F129
S2140017A0400300FB0511E06BFFF7C8FC2046FFF77F
S2140017B04FFAE36901350137B5FBF3F203FB125527
S2140017C082E729462046FFF787FAB0F1FF3F14BFAD
S2140017D002465A460132E0E7636CE26B2068D2F8B4
S2140017E014C001A9052203FB0700E04701A8FFF784
S2140017F047F8824601A8FFF71BF8BAF1010F0DD88B
S2140018004845236A38BF6762804503F1010328BF55
S21400181080468542236238BF05468146013798E7F1
S2140018204FF6FF7363620025E3699D4298D2676CAA
S2140018302068E36B05225B6901A907FB0500984752
S21400184001A8FEF7F5FF0135EEE7E26B676C20684E
S214001850556901A9052207FB0300A84701A8FEF762
S214001860E7FF626A616C2368514D01FB0233143353
S214001870A3624FF0FF33E3622A460DF103036FF0D5
S21400188001012046FFF742FE002836D1AD68E5622A
S21400189029462046FEF77DFE206320B9E16A2046F1
S2140018A0FFF753F8E06229462046FFF74EF8054654
S2140018B0A36A9D4223D16369656C2046A5F1140294
S2140018C0DD1CB5FBF2F503EBC5050335B5FBF2F5FC
S2140018D0FFF7DCF90235A84280463ED2616A204610
S2140018E0FFF714F80027064604F1400AAF4218D363
S2140018F0304D284607B0BDE8F08FA56AC7E72946F1
S2140019002046FEF746FE236B03442946074623631C
S2140019102046FFF71AF80546002FC9D1C4E90B0781
S214001920C6E7474512D3626C236802FB0639E36BB1
S21400193005225B6901A94846984701A8FEF778FF8B
S214001940534602464946E06BFFF7F8FB3146204611
S214001950FEF7DCFF01370646C8E73046FEF73EFED8
S214001960154DA16AE36A994201D04B1C01D10025AE
S214001970B3E62846FFF7BCFD0DF103030122294616
S2140019802046FFF753F930B1D5E900129DF8033031
S2140019903046FEF735FEA9684A1CE3D16968204642
S2140019A0FEF7D3FF0146DDE703E000F016E000F0A7
S2140019B0740E002013E000F0CC0E00202DE9F84F46
S2140019C0930007EE903A4E4B41F671341F6C1C6440
S2140019D04C4C656864689C6844F00104BFB29C6027
S2140019E022F040468C4600254FF00809AE420AD841
S2140019F04FF0000E424B9C6824F001049C609C68EB
S214001A0024F0040411E0DFF80CE100EB8504D3F8C1
S214001A101C8018F0010F1FD0BEF1000F19D16FF017
S214001A20020E374B9C6824F001049C600FB1002422
S214001A301C64BEF1FF3F5ED0BEF1000F5DD117EE15
S214001A40902A08F025FC00282F4808BF0020BDE893
S214001A50F88F0EF1FF3EDAE7BEF1000FDFD001226D
S214001A601C61DA60D3F81CE01EF0040F19D1C4F331
S214001A700A04C4F50064A408A6EB050E744528BF46
S214001A8074468CB94FF0000ED3F8088028F004088E
S214001A90C3F80880BEF1000FACD125440CEB840CD3
S214001AA0A4E74FF0FF3EBCE70CEB840AE04658F88C
S214001AB004EBC3F818E0DFF85CE0C3F80C90D3F84A
S214001AC01CB01BF0010F08D0BEF1000F02D16FF062
S214001AD0020ED9E70EF1FF3EF1E7BEF1000FF6D099
S214001AE0D3F81CE01EF0020F02D1D045DFD1C9E7C3
S214001AF06FF0010EC8E70548A9E70548A7E700BF4D
S214001B0000000E4000300E4010E000F021E000F033
S214001B1024E000F0809698002DE9D34FDDF8289059
S214001B20BDF82CA004460F4690461E46FEF75EFB08
S214001B308346BBF1000F01D0BC4205D94FF6FF74B7
S214001B40204602B0BDE8D08F9BF808309E421CD1DC
S214001B50DBF804003246414608F09AFBA8B9B9F112
S214001B60000FEDD00DF1020201A95846FFF7A7FAC3
S214001B7058B9019949B1BDF80230534505D15246CE
S214001B80484608F085FB0028DAD00134DBF800B0C0
S214001B90A4B2CEE738B50C4611462568AD1A2A46DB
S214001BA0014408F085FB256038BD00002DE9F84F9C
S214001BB007EE901A4B4B4C49DFF84C91DFF84CA1DE
S214001BC0D9F800605B1A49490B4423F4FF63A0EB85
S214001BD0060823F00703984505461446CAF8008011
S214001BE07DD38718FEF772FE08B9FEF7A7FB87427B
S214001BF072D8D9F800000719B7F5806F03D93C4BA7
S214001C0082221A7066E0DFF8FCB0224617EE901AC1
S214001C10584408F01FFB374BC9F800701A6822B901
S214001C20332F57D9DBF834201A601868804508EB44
S214001C3007041ED884421CD900F110039C4249D3E5
S214001C400644751B5D442C4A2B4605F1100153F8DB
S214001C50040B42F8040B8B42F9D12748FEF776FBBB
S214001C6010B9234B8422CCE71022FF21284608F027
S214001C70FFFA224D224B286807F00307E41B1C409E
S214001C8058B908EA0300C0F500612144FEF73CFBA2
S214001C902C6040B1164B8522B3E7A04203D2211A2E
S214001CA000F50060F2E7D9F800201649DAF80000DF
S214001CB0D21BFEF70BFBD9F80020DAF800301249E9
S214001CC0D21B044613440F48CAF80030FFF762FFE1
S214001CD0002CDFD1BDE8F88F054B832291E7044B3B
S214001CE087228EE7C000002010000020DFCD000015
S214001CF02D0B0020BC0D0020AC0D0020FC12002097
S214001D0000F8FFFFF80E0020F8120020300B00202D
S214001D1037B50023114C0093437A6060D0E9002168
S214001D20206803F082F8238CDB050CD563680C4D25
S214001D301B7A2A789A4206D0012B06D0022B08D0AE
S214001D4063681B7A2B7003B030BD206803F042F83E
S214001D50F6E7206803F044F8F2E700BF001300201F
S214001D60DD06002013B50D4B0D4C1B8BADF8043073
S214001D700128ADF8003004BF02238DF8043001A915
S214001D8008BF0423206808BF8DF8003002F056FF15
S214001D902068694602F068FF02B010BDACA40000DF
S214001DA000130020034B00221A6118680122032149
S214001DB002F06ABC001300201FB502238DF806301F
S214001DC0064B5A8B596918680332ADF804206A46E8
S214001DD002F0BEFF009805B05DF804FB001300207B
S214001DE010B51E4C1946236986B023B3A2F108002D
S214001DF0084322D101AA0321206802F0A5FF6368E8
S214001E0060615B7A23769DF80430DA1F53425341B3
S214001E10627E63F30002039BE361BDF806306276E0
S214001E20638304F118010220236998472068012281
S214001E30002102F08FFF06B010BD02F17F40014383
S214001E4005D10021012006B0BDE81040184712F465
S214001E50A0411ABF00210320FF20F4E70013002052
S214001E60F0B5194C194D87B0637A0133DBB2272BD6
S214001E7088BF252320466372FFF74AFF627D144918
S214001E802868E768667C4FF40073023202F03EFF73
S214001E906B68104A5B7A06F00106D15C0391304607
S214001EA0FFF760FF0123002205930399286800923C
S214001EB004AB049702F0ECFB10B1FFF773FFD3E717
S214001EC0054B2B6107B0F0BDDC000020001300209E
S214001ED0F000002091A5000065310000EFF31080AF
S214001EE072B670470048704700F049020E49D1F8B4
S214001EF0942002F00702042A0BD8022A0FD811D128
S214001F000A4BD1F80001C0F304200130B3FBF0F017
S214001F107047074B0748052A08BF0346F1E74FF40A
S214001F200043EEE7024BECE700400E4000F04902AB
S214001F30C0EA210160F5900008B5FFF7D7FF044B13
S214001F40D3F80831C3F308230133B0FBF3F008BD20
S214001F5000400E4013B502460C46FEF7EBFEF0B10D
S214001F6022B9104BD3F80031FFF7C0FFFEF7E2FEB0
S214001F70A8B1FEF7F5FE90B10A4BD3F80031FFF793
S214001F80B5FF094B40221A611CB10190FEF7DCFE3A
S214001F900198002102B0BDE81040FEF731BF02B044
S214001FA010BD00BF00400E4000300E40044B054AF6
S214001FB09A60D3F8882042F47002C3F888207047ED
S214001FC000ED00E00000000008B5FEF7FDF87047E1
S214001FD0FEE7000038B5C0F30323013B04460D4678
S214001FE0092B1CD8DFE803F033231C1B0526291B0E
S214001FF02C30184B0022C4F3043442B11649D1F8F1
S2140020004401C00703D4D1F840010242FBD103F1DA
S214002010424303F5801304EBC3039B001D6038BDE9
S214002020FFF78AFFFEF7A6FE0C4B0022E3E70C4BF9
S2140020300022E0E70B4B0122DDE70B4B1022DAE72C
S2140020400A4B4FF48032D6E7094B0022D3E7024B07
S2140020500022D0E7B0400E4000400E40B8400E4090
S214002060C0400E40E0400E40E8400E40F0400E40BB
S21400207050410E4000F00F000138072844D8DFE832
S21400208000F0040F1943232D4335244BD3F8943026
S21400209003F00703023B052B38D8214AD05C704773
S2140020A01E4BD3F8803003F00703013B032B2FD8D9
S2140020B01C4AF3E7194BD3F8843003F00703013BBF
S2140020C0032B25D8184AE9E7144BD3F8883003F0D9
S2140020D00703013B032B1BD8144ADFE70F4B1B6F8C
S2140020E013F0010F0CBF0720092070470B4BD3F8E5
S2140020F05C3103F03003202B0CD0302B0CD0102B8F
S21400210014BF012007207047002070470520704745
S21400211001207047042070470820704700400E409A
S214002120D7A40000DDA40000E1A40000DDA40000A8
S2140021300428F8B56CD8474B13F800C0464B1D5C16
S214002140464B002970D0464C022834F8106060D107
S2140021505C6A14F0300F5CD1424CE46B5C6AE407B6
S21400216005D55F6A27F0300747F010075F623E4CE0
S2140021703A4B25441E66AD002B68002BFCD0002A87
S21400218046D06444A4002368002BFCD002283FD12C
S21400219000293DD0314B5A6AD1073CD54FF48062B6
S2140021A0C3F8A82020225A665A6A12F0300F0CBFD5
S2140021B04FF440024FF40002D3F8901032EA0101C7
S2140021C0FAD1520201D5D3F8A030244D01220021C5
S2140021D00220D5F89C70FFF7ABFFD5F890306A6AFE
S2140021E0224B22F0300242F010026A62C7F30A075E
S2140021F0296BFA0903320F2A03EA010328BF0F22CC
S2140022003B4343EA02732B632E662368002BFCD005
S214002210F8BD0021ABE75A6AD3F8902002F44002DA
S214002220B2F5400FF8D1CEE7114931F81010196613
S214002230012101FA05F5D3F890102942FBD1002AB6
S214002240E6D00124054A04FA0CF4D2F89030234272
S214002250FBD1DDE7E5A40000EAA4000000400E4044
S214002260F0A4000000300E408004F21000F8FF0FCB
S214002270FAA400001128F8B505460C4611D1042929
S2140022800FD16248614E0021FFF764FE05F00F058E
S2140022906B1E072B61D8DFE803F011065C605A7BE3
S2140022A060860026F2E75A4D013C092C55D8DFE837
S2140022B004F06D555C54546354545452023C0A2C3A
S2140022C04BD8DFE804F03F3C31374A4A4A4A4A06D0
S2140022D042000320052501221146FFF729FF4D4C39
S2140022E04A48276C41F6713323640021FEF764FDEB
S2140022F00FB1002323640EB1FEF726FD464B5D6743
S214002300FFF71AFE0446FFF7F1FDFEF733FDFEF772
S21400231027FD01462046FEF773FDF6B9304601213B
S214002320BDE8F840FFF716BE3C48FEF723FD022046
S2140023300546D0E73948FEF71DFD0320CBE7012010
S2140023400325C8E700200425C5E70725C7E7344D61
S214002350AAE7344DA8E704232B60F8BD01221146F6
S2140023600020FFF7E5FE0223F6E70122114610469D
S214002370FFF7DEFE0123EFE7FFF7B8FDFEF7FAFCF6
S214002380294B0122C3F808260323E5E70023E3E7E9
S214002390072C04D0092CE0D11F4B012201E01E4B74
S2140023A000221A67D9E7013C072CD6D801A353F8B8
S2140023B024F000BF072400005B2300005B2300001E
S2140023C0F92300005B2300005B230000EB230000E2
S2140023D0D523000003221049D1F85C3123F03003E6
S2140023E043EA0213C1F85C31B7E701221146042024
S2140023F0FFF79EFE0122EEE7012211460220FFF7BC
S21400240097FE0222E7E70022E5E700BF00F0490258
S21400241080400E4000000E4000400E400148E8019B
S21400242088400E4084400E400010C84300B962B693
S214002430704700002DE9F0410D4F06460D46144644
S2140024400CB9BDE8F081EFF3108872B623462A4631
S21400245031463846FEF7B2FF03464046FFF7E6FF32
S214002460002BEDD0E41AA4B21D440026E8E700BF16
S214002470680C002013B5002301F10804ADF8043001
S214002480ADF8060021461A4651F8080C083170B916
S2140024900BB1ADF8042004220DEB02010120083434
S2140024A0FFF7C8FF54F8101C39B902B010BD51F838
S2140024B00C3C1A4492B20123E6E734F80C2C0020B8
S2140024C0EDE700007FB50130002380B2CDE90101C1
S2140024D0CDE904336946044B009304200392FFF7CA
S2140024E0C9FF07B05DF804FB8A01002008B5C36881
S2140024F000209847024B1868BDE80840FFF796BFD3
S214002500840D00202DE9F04FDFF8E4A287B09AF89A
S214002510003000920546894603F0FF088BBBFEF7A5
S214002520D5F90746FDF70AFF67B1A84BA84CD3F8C4
S21400253000B0C3F8008094F83430C61B53B3236849
S2140025409F4206D00026009B40461E7007B0BDE89E
S214002550F08F63689E42F5D1A2689E4B9A42F1D1F5
S214002560E368062BEED1626940F26C739A42E9D1B9
S214002570E26B994B9A42E5D1C4F8188001238AF899
S2140025800030934F97F83430002B40F083800026BD
S214002590B046D8E7A36B01934022414604F11000F1
S2140025A007F066FE019BA36340F26C736361894B80
S2140025B0A3600623E36004F10800C4E90076FEF792
S2140025C00DF8854BE36304F1400001F07DFF002821
S2140025D05ED1636C13B16268B2FBF3F394F84320E8
S2140025E0E361002AAED0666C002EABD0002BA9D0DB
S2140025F02368B3FBF6F206FB1233002BA2D1676802
S214002600B7FBF6F306FB1373002B9BD17048FDF760
S214002610A7FF874296D3636940F63472CC3B934259
S21400262090D8B6F5007F8DD369480321FDF7CAFF21
S214002630E36BD4E900011B689847E36B0646DB684A
S21400264002209847C6B962485946FFF71BF8634B05
S2140026509842064604D15E485946FFF713F80646E8
S21400266056B9636C276A5A48143B5F43FDF778FFF8
S2140026705B4B874238BF1E46B6FA86F35B09E06BB3
S21400268084F83430FFF732FF002E3FF477AF59E777
S2140026904346A3E7DFF84CA10121384645F48025E0
S2140026A0FDF790FF04AB524629463846FEF72EFF4C
S2140026B0044600283AD19DF81030032B36D0022B62
S2140026C037D0DAF81060F86BFFF710FF002C7FF4B5
S2140026D05EAF009B1B78B342FFF459AF97F8348087
S2140026E0B8F1000F3FF453AF39480121FDF76AFFF8
S2140026F029463C4A36480DF10B03FEF707FF054610
S21400270060B99DF80B30012B74D1DAF81030B34263
S21400271076D1DAF804A03546FB6B65B9F86BFFF79F
S214002720E5FE002D7FF433AFF6B20CE72E4C002604
S214002730C9E70426C7E75B69012203A95046984704
S2140027402849039B0968C3F3D31291423BD113F087
S2140027507E0F2CD003A8FEF72BF84FF0040BA842F0
S21400276028BF28460328D3440446A5EB00050BD90A
S214002770FB6B82085B6949465846984724F003037A
S2140027809B4404F0030499445CB1FB6B01225B6933
S21400279004A9584698474846224604A907F05AFD19
S2140027A0A14451460A48FEF7D0F88246B4E7FB6BD0
S2140027B002225B6904A95046984704A8FDF7F8FF73
S2140027C04FF0080BCBE7094DA8E700BFBC0300207D
S2140027D0F80D0020C00D002074A5000013E000F0E6
S2140027E002E000F0480E00200BE000F022E000F0CF
S2140027F0F00D0020034D0448022B18BF05468DE758
S214002800024D8BE70CE000F00BE000F011E000F06A
S2140028100D4AD2F82838A3F17E63A3F58433B3F5C6
S214002820104F10B50FD2EFF3108072B6074B197821
S21400283000241C70FFF7FAFD29B1D2F82838BDE84D
S21400284010401B6A184710BD0000E10F880D0020DD
S21400285001282DE9F34740F045818B88012B40F095
S21400286043810B681C7814BBA14BA24D1C60A24B85
S2140028701C60A24B1C60A24B1C60A24B1C60A24BAF
S2140028801C70A24B1C60A24B1C602B78022B01D143
S214002890FFF7BEFF9F4A01232B70002313709E4A4A
S2140028A013709E4A1370204602B0BDE8F087032CD2
S2140028B040F00681994B8F4E1C78002C40F08D809E
S2140028C03378002B00F0F0808F4B1B78082B40F0FD
S2140028D08780DFF81C82D8F8000090B9904DD5F8B4
S2140028E02838A3F17E63A3F58433B3F5104F55D390
S2140028F04FF4017041F20804A0420CBF86248024E5
S2140029006BE010F003071ABFC7F10407FFB22746B3
S21400291000EB070ABAF5806F00F2CC80814BDFF837
S214002920EC913A46FF21184407F0A2FC7E4AD9F8FB
S21400293000301268C8F800A00AEB0301914200F2CA
S214002940BD806D4A15681D445544DFF8B8A125F4CE
S214002950FF65DAF8000025F00705854207D9291A31
S21400296000F50060FDF7D0FCB0B9CAF80050D8F802
S2140029700010D9F80000FEF73FFBD9F80030D8F871
S21400298000205B4913440546DB1B6648C9F8003047
S214002990FFF700F9002DA1D085241EE0FEF7EEFA21
S2140029A00028A7D1D5F828280190A2F17E63A3F5C8
S2140029B08433B3F5104FEFD2126BA2F17E63A3F50A
S2140029C08433B3F5104FE7D29369012101A89847E5
S2140029D00028E1D1504B01221A700023337062E7C1
S2140029E0002B63D04B4B1B78002B61D0484F3B68C5
S2140029F043B9434B4D4918681022FDF767FC002881
S214002A00EBD0C9E713F003021CBFC2F10402D2B236
S214002A1003EB0209B9F5806F4CD84548DFF8DC8037
S214002A201844FF2107F024FC424A434BD8F80050D4
S214002A30C7F800909B1A414A134423F4FF6323F01F
S214002A400703AB4238D8A944FDF740FF08B9FDF7A5
S214002A5075FC814532D83B68DFF8A8901D44D9F84C
S214002A60000025F4FF6525F00705854208D9291AD8
S214002A7000F50060FDF748FC00288DD1C9F800502D
S214002A803A682B49D8F80000FDF720FCD8F800304B
S214002A903A681F49054613442548C8F80030FFF732
S214002AA079F8002DA5D077E7812496E7842494E76B
S214002AB0802492E7822490E787248EE783248CE79D
S214002AC0042C13D11E481323022143700170FEF715
S214002AD0B7FB1C4A1C4B128905329A801B4A1A60A7
S214002AE042789A710024DEE60D24DCE60624DAE657
S214002AF0280B00202E0B0020A4130020300B0020F3
S214002B00BC0D0020FC12002084010020340B0020A5
S214002B10F81200202C0B0020910100202D0B002025
S214002B200000E10F28070020A8130020AC0D0020AD
S214002B30F80E002010000020C0000020DFCD0000AE
S214002B40A00D0020800600208C0D002069360000B5
S214002B500D4AD2F82838A3F17E63A3F58433B3F583
S214002B60104F10B50FD2EFF3108072B6074B1978DE
S214002B7001241C70FFF75AFC29B9D2F82838BDE8A2
S214002B801040DB69184710BD0000E10F880D0020DB
S214002B902DE9F04F012891B004D00024204611B052
S214002BA0BDE8F08F8A88002A00F0D981AA4F97F8EE
S214002BB000A0BAF1000F00F0D481A84D2C78002CAC
S214002BC0ECD1DFF8CCB29BF80040002CE5D1A44E47
S214002BD0306802EB0009B9F5806F02D982242C70A8
S214002BE0DCE7DFF898820968404407F033FBBAF167
S214002BF0020FC6F800903CD0B9F1030FCDD9994822
S214002C00FDF71CFB0378D8F80020012B47D143685A
S214002C10190E012903D1C3F307430A2B47D9924B58
S214002C209A4240F0E8808368DA033ED502233B7080
S214002C30FFF78EFF8D4BD3F82828A2F17E63A3F50D
S214002C408433B3F5104F0BD2126BA2F17E63A3F55B
S214002C508433B3F5104F03D2936809A90020984730
S214002C60834B099A1A60834B0A9A1A603B78022BA8
S214002C7093D1DFF82092336899F80020082A4CD1C7
S214002C80DFF800827B49D8F80000096803F0030AE1
S214002C90C218A2EB0A028A420BD983249FE7724C21
S214002CA0A2420CBF8624842499E7862497E78824CA
S214002CB095E76F4A17681F4407446F4BA7EB0A0750
S214002CC0186827F4FF6727F00707874209D9391ADB
S214002CD000F50060FDF718FB674B08B185247EE71A
S214002CE01F603168D8F80000A1EB0A01FEF784F9EE
S214002CF03268D8F800305A49A2EB0A020746134455
S214002D005E48C8F80030FEF745FF002FE6D199F878
S214002D100030002B7FF441AF01E0002A6DD133680C
S214002D207F2B7FF63AAFDFF86081D8F8000028BB2B
S214002D304E4BD3F82838A3F17E63A3F58433B3F55E
S214002D40104F15D20123CDE90A0009A88DF82430CA
S214002D50FDF774FA0A9B1A0E7BD0012A03D1C3F33F
S214002D6007430A2B75D9414BD3F828389B6B9847F5
S214002D70434B186007F084FAC8F800003B4FD7F8BA
S214002D802828A2F17E63A3F58433B3F5104FA5D2AD
S214002D90936A3B4AD8F800001168984700289DD1EE
S214002DA0D7F82838A3F17E63A3F58433B3F5104F24
S214002DB021D20123CDE9070032688DF8183006A825
S214002DC0D8F800A00392FDF739FA079B190E12D027
S214002DD00129039A03D1C3F307430A2B0BD9234BCC
S214002DE005A9D3F8283800915F6B244909AB5046F3
S214002DF0B847002850D08424F1E622490A681A44CD
S214002E000A601A4AD2F82818A1F17E62A2F5843226
S214002E10B2F5104F13D21C48CF6A184A1B490068F7
S214002E20B847074632680E491448FEF7B3FE40F22C
S214002E3003239F4206D101238BF80030AEE640F212
S214002E400227EFE740F201239F423FF460AF802461
S214002E50C5E64FF4C0708BE72E0B00202D0B00202C
S214002E60280B0020A8010020EB17A6030000E10FA6
S214002E70A4130020A8130020FC120020280700201E
S214002E804C0B0020340B0020480B0020380B002091
S214002E902C0B0020840100209DF8243089F8003097
S214002EA00393FDF775FA039B074648B3D0F834A0A2
S214002EB0002B3FF473AE002306930DF11302042398
S214002EC006A935208DF81330FFF71CFB069BDB07A1
S214002ED01AD599F80030082B14D0BAF1000F42D05A
S214002EE0534610220CA903F12800039307F0D0F9EB
S214002EF020B9039B0A9A1B6A9A4205D889246EE673
S214002F008246D5E7364BECE797B14FF4006138467A
S214002F10FDF7FAF900287FF4E1AE2AF4FF604FF4DB
S214002F20006120F00700FDF7EFF900287FF4D6AE29
S214002F3099F80030082B18D12A4B2B4A186820F431
S214002F40FF6323F007034FF400611360FDF7DCF91D
S214002F5000283FF423AEC1E640F202272FE00D24FE
S214002F601CE681241AE6002FCFD1204F204BDFF835
S214002F7090907B60D9F82828A2F17E63A3F584336D
S214002F80B3F5104FBFF4AAAE936A1A4AD8F80000F9
S214002F901168984700287FF4A1AED9F82828A2F136
S214002FA07E63A3F58433B3F5104FD5D2D2F82C90B8
S214002FB03368114AD8F800003946C84707463268D1
S214002FC00E490D48FEF7E6FD40F203239F423FF40C
S214002FD032AF40F201239F423FF4E0AD37E700BF37
S214002FE00CA50000A4130020FC120020380B0020C3
S214002FF0AD1B00004C0B002028070020280B0020EB
S2140030000000E10F08B50F4B0F4C1B784FF0005532
S2140030106BB1FFF79DFD0D4B2B600123A36023686A
S21400302023F4E06343F480632360FDF7CDF82B6060
S2140030300123A360236823F4E06343F480632360E2
S214003040FDF7C2F89101002000500E4002020FF07A
S21400305010B5164CA37E5B0626D4FEF7A3FEA18C05
S214003060226840F2E24303FB01222260A37A94F82E
S2140030704F2013442522B3FBF2F002FB10332289C3
S214003080A3720132636822810A2202FB0133636065
S214003090238B5A1E22833BB9A27E42F04002A276C0
S2140030A0034A1370FFF7AEFF10BD00BF8006002076
S2140030B0DC060020F0B5254CA37E5A0687B040D427
S2140030C0234A218923F0070343F00103A3761368FC
S2140030D01BB192888A4200D19847A37A1D482344A0
S2140030E093F82A306375FEF713FED4E900561A4C9F
S2140030F01A4A63685B7A7708D15C0191A5EB56069D
S2140031000120FEF72FFE643502964FF480730026EA
S2140031100199ADF814303D4402AA20680495334660
S2140031208DF80C608DF8166001F0D8FA012205467D
S2140031303146206801F00EFE2DB1FFF789FFFFF73C
S214003140B9FF07B0F0BD064B2361FAE78006002002
S2140031508C0D00208C0600200013002091A5000096
S214003160CD32000002282DE9F0411DD002D80128FA
S21400317007D0FEE7032800F09E80FF2800F09B8023
S214003180F7E74E4C637C990707D5FEF70BFEFEF774
S21400319067FE637C6FF341036374637CDA0768D46D
S2140031A0BDE8F041FEF75CBE4B78DB0740F183805C
S2140031B04C68227802F00F08B8F1030F5BD0B8F124
S2140031C0050F78D13E498B7B03F00103B3EBD21F8A
S2140031D04FD10622083104F1080007F059F80646D8
S2140031E0002846D1FEF7DEFDFEF7E6FD354D3146FA
S2140031F007465C22284607F03BF8AB7EA5F8188009
S21400320043F02003AB76627E237E43EA0223AB8440
S214003210627F237F43EA0223EB8494F82330C3F3D0
S214003220040385F84F3094F82330C3F3421385F82F
S214003230503004F11E001B232B85FDF7E9F8D4F867
S2140032400E30E27CEB60A37C2F6043EA0223227DF3
S214003250607D43EA02432B61012695F84F30AB723E
S2140032602E75E18A3144FDF70FF9FFF723FF164B61
S2140032701E70BDE8F081124DAB7B03F00103B3EB8B
S214003280D21FF6D1062205F1080104F1080006F067
S214003290FFFF0028EDD1094C286894F83D204FF434
S2140032A00073023204F13C0101F030FD637C43F010
S2140032B002036374DDE7FEF775FD71E7DC000020AE
S2140032C00013002080060020DC06002002282DE9DE
S2140032D0F34780460C460BD003D8012800F0AE8199
S2140032E0FEE7032800F0B081FF2800F0AD81F7E785
S2140032F04B78AB4D13F0010300F0BC804A68AF7EFC
S214003300117892F80090C1F3001161F38207AF764E
S214003310C9F3C001C7F30017B94240F0A88009F00E
S2140033200301022900F0A180032918D0012940F0EA
S2140033309E804FF0000A567896B19A48818AFDF72B
S214003340EDF80B1A9BB2BAF1000F04D0022B86BF21
S214003350023B9BB200239E428CBF002301231E46E5
S214003360A97EC9F38009C1F3C002914508D082F056
S2140033700102D20042F0200221F028010A43AA7678
S2140033802BB1AB7E87F0010767F30413AB76AB7EF9
S214003390854F13F0200F11D0696D6FF34513AB7690
S2140033A0002969D03B7895F858207A7043F00303DB
S2140033B03B70B81C06F04EFF00236B657B487A49CD
S2140033C0FDF7ACF8AB7E003818BF012060F3410370
S2140033D0C3F3C002AB76C3F300139B0043EAC203F9
S2140033E043EA00103B787A7823F01C0318433870C1
S2140033F06F4F02324FF400733868D2B201F086FC89
S214003400AB7E6468D90709D56FF30003AB7600235B
S2140034106B60FEF7D1FC2860FDF74AF8002E00F03E
S214003420A180237803F00303022B05D0032B3DD0A5
S214003430012B40F0978000265A486578818AFDF770
S2140034406DF8081A80B226B1022886BF023880B20C
S21400345000208542ABB200F285805248A21C31465D
S21400346002B0BDE8F047FDF7A9BF9A4663E700261D
S214003470334675E71E468AE795F828304B48BA1C4F
S2140034800DF10701FDF737FF10F0FF000BD09DF898
S2140034900730002B08BF4FF001083B78787068F3C0
S2140034A001033B708AE74FF00108F6E7A3780C2B80
S2140034B00AD80C2B0AD8DFE803F03F2B5809090975
S2140034C00909600909091800142B7FD0394A1278B7
S2140034D02AB1162B00F09680182B00F0A2803648F2
S2140034E007220270437002210DE033480C234FF090
S2140034F0FF3203700123437082700371022200239F
S214003500C2704371062102B0BDE8F047FDF798BED1
S214003510617A237A294A43EA01239380134628498D
S21400352043F8061BD4F80310C2F80610B4F80720B8
S2140035309A80627A9A7115E0627B237B1F4943EA80
S21400354002238B800B461F4A43F8062BD4F8032031
S214003550C1F80620D4F807205A60B4F80B201A8168
S214003560627B9A7202B0BDE8F0872A89134B053257
S2140035709A80154A1A60E278DCE7D4F803303A8C71
S2140035800D48134003F0FF0322F0FF0213430246E8
S214003590092102F8011BC0F8013000235360B2E78E
S2140035A080060020500B0020AC130020680C002082
S2140035B000130020800D0020A00D00208C0D0020A0
S2140035C075040000ED04000069360000B4F805300C
S2140035D0B4F803202048DB08934228BF13462B8507
S2140035E0152300216FF004046FF0270203700723F1
S2140035F0817081714470C27003714471C27103722C
S214003600092180E72279E3781348134003F0030387
S214003610022B18BF01231722027043708370032108
S21400362071E76279A1790D4B42EA01229A800C4A31
S2140036301A60D4F80320C3F8062093E7094B9B7E54
S2140036409A078FD45B078DD4FFF702FD02B0BDE862
S214003650F047FFF72FBD00BFA00D00208C0D002007
S214003660F903000080060020054A08B5937E43F063
S21400367040039376034B00221A70FFF7C3FC00BF8B
S21400368080060020DC060020EFF3108072B670473C
S214003690FEF7CCBE064A074BD3F88039136F23F0EB
S2140036A007031843044B10671888FDF701BC00BFDA
S2140036B000300E400000C643F40600200000000064
S2140036C02DE98048774B5B685A05A5B01BD44FF0B0
S2140036D0005300221A601CA8FCF7B0FDFCF758FE49
S2140036E0C0B1446BFFF734FA1E9B5B0740F1AF8016
S2140036F0FCF74EFEFCF7DAFD0446FFF789F8002CCF
S21400370040F0BC8006E04FF000531A68022ADED173
S21400371000221A60BFF34F8FBFF36F8F624B634C6C
S2140037205A6A634F634922F480325A62D3F894206F
S21400373022F00102C3F894202068C3F898004FF0E6
S2140037400052C3F89C20451C5B4AC3F8A0208F4259
S214003750256050D07E1E731A43EA530343EA930350
S21400376043EA131343EA132343EA13430133B3F53F
S214003770807F38BF4FF48073C3F1000C0CEA010C55
S21400378003EB0C02974200F28A80072BA2EB07029B
S2140037904FF001078CBF4FEAD30E4FF0200EB2FB5E
S2140037A0FEF207FA02F2013AD2B2A6EB0C06A1EB41
S2140037B00C01B6FBFEF6B1FBFEFE3E4407FA0EF722
S2140037C0013FB240B3FA83F33A4302F0FF07C3F176
S2140037D01E02520002F03E0242EA0722324B42F03C
S2140037E0407242F001120230C3F89850C3F89CC0F1
S2140037F0C3F8A0202060BFF34F8FBFF36F8F2A4B14
S2140038000522C3F894205A6A42F480325A62BFF303
S2140038104F8FBFF36F8F294B01225A64284BD3F882
S214003820FC20284B120E4FD14AF6E851C3F89011EF
S214003830D3F8981141F00401C3F89811C3F8902109
S214003840D3F8642142F40052C3F864213EE014B970
S214003850FEF7DEFF5EE7FCF771FD8442F8D2FCF768
S2140038606DFD04F140038342F2D82046FCF76EFD5E
S2140038700028EDD063696BB9FEF7CAFFFCF788FD38
S2140038800446FCF785FD084B986023689D466368F0
S21400389098473FE79DF87030012BEDD128E75B0095
S2140038A06AE700BF00500E4000ED00E04013002025
S2140038B0B8000020B80000203900011300000E40B8
S2140038C00081E00F00300E40012AB9D0B94A136AD1
S2140038D023F4441343F488131362A2F5804213685A
S2140038E043F480731360B44BD3F8A42142F4F84237
S2140038F0C3F8A42102229A639A6B02F00F02022AEE
S21400390040F0EC80DA6C22F0405222F0010242F0E5
S2140039100102DA64D3F8EC2042F44072C3F8EC20DB
S214003920A64A0F211180DA6E42F08072DA66A44B46
S214003930D3F8800900B10420FFF7ACFEA14B9E4DE2
S214003940C8221A80A04BA0220F2000241A80FDF760
S214003950AFFA9E4BAB65CDE91444CDE91C449C4BB5
S214003960D3F81832C3F30722DBB21E921693EE6C1E
S214003970C6F30176224633461CA914A8FDF74EFA74
S214003980D5F8EC50C5F3012522462B461DA915A8EF
S214003990FDF744FA1E98169B4FF41672C11A51434F
S2140039A0B1FBF2F29B1828BF01249842C0F0968023
S2140039B0002C40F093801D9A159C4FF41677101B30
S2140039C07843B0FBF7F024182CBF01210021A24257
S2140039D0C0F08480002940F081801C981499421A17
S2140039E07A43B2FBF7F289182CBF012200228842E4
S2140039F074D3002A72D17048C26D22F4FE4222F0BF
S214003A00020242EA0322724BC265022ED3F830222B
S214003A1000F0FC80032E00F0FC80012E14BFD2B212
S214003A20C2F30722120312F4702F57D16248C36EF6
S214003A3023F470431A43664BC266022DD3F8302235
S214003A4000F0E980032D00F0E980012D14BFD2B20A
S214003A50C2F30722120312F4702F3FD1564BD3F84D
S214003A60EC0020F470400243C3F8EC205A6EA142EA
S214003A7038BF2146E72922F4FF7228BFE72122F04B
S214003A80010242EA41025A66DA6B42F48062DA6365
S214003A904AF6E852596B5A639A6FD707FCD41B6CE8
S214003AA0474A13F0030300F0E5840123C2F8B43A52
S214003AB0414B9A6FD607FCD41A6C22F003021A64A4
S214003AC09A6F12F00102FBD13D480129C0F8B42AD2
S214003AD008BF5A633A4B0122C3F89427354C3D4E33
S214003AE01120FEF7C7FA002101220220FEF720FB74
S214003AF0636A23F001036362374B0025C3F8A054C2
S214003B00A36A23F0070343F00603A362334BE36282
S214003B10226B334B02F07F6213432363314B6363A4
S214003B2004211120FEF7A6FB234B304601211B681B
S214003B30FEF710FAFDF714F901463046FDF760F976
S214003B40D4F80001C0F304200130B6FBF0F0FDF716
S214003B5011F9012211460220FEF7EAFA636A224EA4
S214003B6043F040536362D4F8C83043F00103C4F80E
S214003B70C830174BD3F8D830B365042406AA08A972
S214003B8035208DF818400895FEF7BCFC089A8DF88D
S214003B901640062312F4803F8DF8173009AC40F02B
S214003BA095820DF1170221462C20FEF7ABFC00286B
S214003BB049D01BE000400E4000300E40F4060020C6
S214003BC00000C643F6060020F8060020372110B78E
S214003BD00081E00F00F049020000C8432000050005
S214003BE007450BD047A00200005008400DF1160212
S214003BF007A93C20FEF786FC18B19DF81C0000F0D3
S214003C0001009DF82A3060F3000318E0C2F3074273
S214003C1008E7120E06E7C2F307421BE7120E19E783
S214003C20B16D02F8011B013BFAD29DF8293063F012
S214003C303F038DF829309DF82A3043F001038DF8B4
S214003C402A30BF4B5C60BF4BBF4A9A6000244FF4DB
S214003C508071C3E9002259611C82BC4BBC4A596181
S214003C60BC489A60C3E900221C8200F061FCBA4896
S214003C70BA4B03602146BA4B436000F0DFFCAEA3AC
S214003C80D3E90023B74EB84D3060CDE900234FF09E
S214003C90FF334FF0FF3200F0E9FF02224FF0FF3112
S214003CA0306800F0E5FF0DF1700A3C239422CDE960
S214003CB01C321E935146962330682294CDE9204448
S214003CC01F9300F0A5FD30682C70294600F0F8FF21
S214003CD028B1012330682B70294600F0F1FF984C7C
S214003CE03068DFF81C9301F072F8B4F900202978E8
S214003CF0306800F02DFC0146306800F0CEFF6468A6
S214003D00002C40F0E5814846FCF716FCB37B64F3D4
S214003D100003B373954B964C964DDFF8E882202748
S214003D2083F801735C2283F80473002183F806731A
S214003D3004F1080083F8077383F8057383F80873A3
S214003D4083F81D7306F094FA42F21073E3608A4B10
S214003D508A4AC4E9005342F2015323814FF4907318
S214003D60338401231370864D8DF814300022C8F872
S214003D7000201B222A800DF1150105AA3E20FEF721
S214003D80C1FB11230DF113020FA936208DF8133055
S214003D90FEF7B8FB0DF11202514639208DF812706D
S214003DA0FEF7B0FB90BB774B9DF8132018681B7985
S214003DB01C908AF80430002A00F093811B2A28BF42
S214003DC01B22531D8DF812300FA9531C0DF17500E0
S214003DD08DF8733006F03EFA14A8FCF7ADFB6A4A7D
S214003DE09DF8123012882AF8032024A99A1C51FA4A
S214003DF082F20021149802F8201C0933BDF85410F2
S214003E0042F81F0C22F81B1C8DF8123020230DF1EF
S214003E10110214A93A208DF81130FEF773FB48B949
S214003E205A4B5A8B1B7F8DF852300323ADF8502027
S214003E308DF81130564B574800220227C3E900225E
S214003E40554B03600771FDF769F95448544B0360FE
S214003E50102303720771FDF701FB5248524B0360B3
S214003E60524B0771C36007720782CDE900373B46A5
S214003E7090E806001430FDF7E5F89DF813100029C9
S214003E8000F03A810FA8FDF713FB4948494B036041
S214003E9010270771FDF742F94748484B484A036028
S214003EA04FF6FE7B08230372C260A0F810B00771BD
S214003EB0FDF7D4FA4348444A02600C220272434A91
S214003EC0C260A0F810B00771FDF7C8FA4048414A32
S214003ED002604FF0020B404AC2600823038207715B
S214003EE080F808B0FDF7BAFA3C483D4B03603D4BFE
S214003EF0C36001230382077180F808B0FDF7AEFAAD
S214003F0039483A4B03603A4BC3604FF6FE73038260
S214003F10077180F808B0FDF7A1FA3648364B036003
S214003F20364BC3604FF6FE730382077180F808B005
S214003F30FDF794FA68E000BF085500510000000045
S214003F4094010020680C0020800C0020500B0020FC
S214003F50680B0020CCA5000030130020E11D0000F7
S214003F6024130020001300201200002000E100E0CF
S214003F70DC000020D6BE898E55555500800D0020E9
S214003F808601002019A4000023A40000ACA40000B1
S214003F90E00600206413002026A400002005002070
S214003FA029A40000FC0600202CA40000CAA40000DF
S214003FB0841300202FA400007805002040A40000F1
S214003FC051280000D005002051A40000912B0000CD
S214003FD01804002062A4000004A5000028060020A3
S214003FE073A4000090A500007004002084A40000C4
S214003FF091020000C003002095A4000055120000A6
S21400400008130020B8030020B14BB24A1A604FF6DE
S214004010FF729A809DF81220202A05D8931DAE487C
S2140040206375514606F016F99DF81120202A06D829
S214004030931DAA4884F83D3014A906F00BF9FDF745
S214004040B1FE227C617CB2FA82F35B0963F3000165
S214004050237D617462F30303B27B02F0010262F314
S21400406086132375637D0BB9062363759C4BB9F8DD
S2140040700410B068C4F81600998094F83C30042107
S21400408061F3030362F3861384F83C3094F83D3002
S21400409013B9062384F83D30924BB068B9F8042073
S2140040A0C4F83E009A80FDF7DBFE8F4E8F4B1B78E0
S2140040B02BB1DFF848924846FCF730FAF8B98C4A3C
S2140040C0136923F00403136130BFEFE72246AAE525
S2140040D02068B060A288A37989F80630A9F8042081
S2140040E018E608238DF81230824B1A889B78ADF8B4
S2140040F075208DF877306FE67E480321C3E6EFF330
S214004100108472B600231A460DF119014846FDF7D1
S214004110F2F82046FEF78AF99DF8193013B100230D
S214004120C8F80030D8F80020EFF3108472B6C2F555
S21400413001739BB232440DF119014846FDF7DBF8D6
S21400414003462046FEF772F9D8F800001844032804
S214004150C8F80000AFD93488231D9842ABD307D8DF
S214004160708804284FF0000306D0062800F07881F7
S2140041700023C8F800309EE732796B8004F1FF3ADE
S214004180122A1FFA8AFA18D8012A19D9931E5A4FEA
S214004190102B15D8DFE813F0160014002C001400BE
S2140041A046001400F10014007A00140014001400F5
S2140041B0140014001E011400C400522A00F0CA8025
S2140041C00622A4E0BAF1020F40F04881B6F8054096
S2140041D00022B4F5007F28BF4FF400740323114675
S2140041E050463B70A7F80140FEF76CF92C80BFE7FD
S2140041F0BAF1040F40F08B80B6F80540A0B2FBF78A
S214004200F5FF60B1027A7C80022A4FF005010CBFF0
S21400421001230223397041687B70032055E06C80CF
S2140042200A2274E0073CDFF8D8B0CDF800B0A4B29C
S2140042300194B6F80710B6F805000223ABF10202A7
S214004240FDF76AFC4FF6FF7A5045044604D17368C2
S214004250C3F30F236B80E3E700230130CDE900337F
S214004260ABF102020223514680B2FDF755FC5045E1
S2140042701CBF00F1FF3080B207233B70A7F8014057
S214004280A7F803000022114604201EE0BAF1020F30
S21400429040F0E480B6F80500FBF7A8FF002855D0EC
S2140042A0037B99072ED52B88013BADF81A300DF10C
S2140042B01A02B6F805000BA9FCF71EFF024610BB53
S2140042C00B23BDF81A200B993B70FEF7FBF84FE75F
S2140042D0E8060020E0060020F8000020200100206C
S2140042E0F20000201A010020B4010020DC060020A5
S2140042F000ED00E01FA400008A010020500B002003
S214004300BF01002052467368C3F30F236B805B4BDC
S21400431030796988587001241C7059801A71B1E789
S214004320B6F80500FBF762FF80B1037B1A070FD5CE
S214004330E21E92B25249B6F80500FCF7A7FE024606
S2140043400028E0D113233B700146BEE70122DAE7DE
S2140043500322D8E7B6F80500FBF748FF00283FF42D
S21400436007AF037B5B077FF503AFE21E4449B6F851
S214004370050092B2FCF78AFEFAE6631F9BB2022B98
S21400438001D0102B6AD10022CDE90022DBB23D4AD3
S214004390B6F80710B6F80500FDF7BEFB4FF6FF733C
S2140043A0984204463FF453AF2B880DF11A02043BA3
S2140043B00BA9ADF81A30FCF79FFE024608B16C80D8
S2140043C0A5E7BDF81A200B997C8009233B70931C47
S2140043D07B7022E7631F9BB2022B01D0102B3DD1CE
S2140043E04FF0000ACDE900AADBB20393254AB6F8DF
S2140043F00710B6F80500FDF78FFB4FF6FF7B584514
S214004400039B04463FF423AF0130CDE900AA1D4AC2
S214004410594680B2FDF780FB2B8858458246A3F1AB
S214004420060318BF00F1FF3A0DF11A020BA9204649
S21400443018BF1FFA8AFAADF81A30FCF75DFE02467E
S2140044400028BCD1BDF81A200B997C8011233B7044
S214004450131D7B70A7F804A0052036E7042256E754
S214004460CDE90D33084B0B930BA902230C93FEF7F3
S21400447001F87DE6C2F8B43AFFF72CBB8A010020AB
S214004480BB010020BD010020100000200D4AD2F81C
S214004490E430D2F8E0109B0003F03C03C1F3811136
S2140044A00B438370D2F8E03003F03F034370D2F83A
S2140044B0E830D2F8EC2003F0F003C2F30312134303
S2140044C00370704700FF0FE013B5044601A8FFF71E
S2140044D0DDFF9DF80630238040F201136380074B12
S2140044E0D3F8E4301B0E0A33012203F01F0302FA4E
S2140044F003F30020636002B010BD00BF0081E00F30
S214004500FEE7000008B5FDF751FD064B0649074AD1
S2140045108B4201D3FBF71EFE52F8040B43F8040B44
S214004520F6E700BF10000020C0000020A0C5000075
S21400453038B5044600F0D5FB0FCC044D0FC594E803
S2140045400F0085E80F00002038BD00BFAC14002027
S21400455047F6FF739A42F0B569D0022969D8364B00
S21400456003EBC105CF00A87813F83110012838BF37
S21400457001200129044613D1EB781B1A002098422B
S21400458002D3E018C0B2F0BD191AA3EB51016E6851
S21400459036F911609642CCBF01F1FF330846EEE7CC
S2140045A068680028EFD0B0F90010914204DBB0F93B
S2140045B002109142B8BF114682883B44FF2A08BFCA
S2140045C0B0F906205F7807BFB0F90860012500251E
S2140045D0C82207F1FF3318BF2826521A92FBF6F2BC
S2140045E02A44934228BF134600EBC3054FF47A7E55
S2140045F0AE68EA8811FB02621E46013322EAE272C6
S2140046009F4202F5FA72AC46B2FBFEF205D9BCF840
S2140046100CC0944505F10805EAD200EBC600808878
S214004620904228BF1046A04238BF2046AAE7FF2087
S214004630A9E70020A7E700BFAC140020F8B50D4698
S21400464010B900242046F8BD0E4F3E68002EF8D163
S21400465000F082F804460028F3D0386000F0B0F886
S214004660204600F0A2F838B130463E6000F0A8F8C8
S214004670204600F095F8E4E7002DE3D02046A84752
S214004680E0E700BFCC1400200846114600F0AAB8A8
S214004690F7B5114D04466E680F4600200121CDE99E
S2140046A00032B047DDE9003206463946204604F0BF
S2140046B037FD044618B92B680120984704463EB1DA
S2140046C000F0C6FB00B91CB100216B68084698478D
S2140046D0204603B0F0BD00BF24000020F7B5104D03
S2140046E0019204466B680F46002001219847019A04
S2140046F006463946204600F0BDFA044618B92B682F
S2140047000120984704463EB100F0A2FB00B91CB158
S21400471000216B6808469847204603B0F0BD00BFEE
S2140047202400002070470000431E033306D8044BC5
S214004730984228BF1846642838BF6420704700BFD8
S21400474040420F00431E012B03D9031F5842584115
S2140047507047012070470000F8B50546FDF7BEFB20
S2140047600E4B1E68074626B93846FDF75FFE3446F0
S21400477010E0B46884B1237C9C46DB070CD495E833
S2140047800F004CF0010C84E80F0084F810C0384687
S214004790FDF74CFE2046F8BD3668E4E7180000201A
S2140047A04FF4A472002105F063BD10B50021044645
S2140047B000F071FA2046BDE8104004F0FDBA000093
S2140047C010B5044618B9054B054A136010BD03F032
S2140047D0C3FCD4F89430002BF6D1F4E7254700004C
S2140047E01C00002010B50C4603F0CCFC1CB103F0F6
S2140047F01FFD0128FBD1034BBDE810405B6800217C
S214004800032018472400002003F028BE03F03CBE17
S21400481008B502460868FFF787FF08604868FFF794
S21400482083FF48608868FFF77FFF8860C868FFF7E7
S2140048307BFF0B69C860581C03D00B48834228BF17
S21400484003460B614B69581C03D00748834228BFB8
S214004850034688694B61FFF767FFBDE8084088613B
S214004860104604F0FFBA00BF40420F002DE9F84F93
S214004870D0F88C3007460E4613B1038B8B4246D0D9
S214004880D7F888B0BBF1000F44D0DBF80830002B17
S21400489040D0DBF80C20002A3CD0D7F89CA0BAF118
S2140048A0000F3AD04FF000094D46C84601E0DBF84D
S2140048B00830C5EBC50403EB84040135E389B34235
S2140048C016D8238AB342384612D3B4F91230B7F951
S2140048D024109942A04603EAE37250DD97F8D410FC
S2140048E0FFF736FE7B7D8342814648D9DBF80C20F5
S2140048F09542DCD3B8F1000F29D000234246194672
S2140049003846D0473E83C7F88C8087F8DD90002075
S214004910BDE8F88F0320BDE8F88FD14654465146CF
S21400492047F6FF75C4EBC40803EB8808B8F80E30EA
S214004930B3421AD8B8F81030B34216D3B8F91220DA
S214004940AA4202EAE27204D14FF0FF09DAE7012038
S214004950DEE797F8D4103846FFF7FAFD7B7D8342F2
S21400496081464146CED9DBF80C200134A24202D95A
S214004970DBF80830D6E70029E9D08846C2E7A0462B
S214004980BBE700BF2DE9F04782B0044688461746CD
S2140049901E4604F0D2FB04F0D9FB00286FD1DFF8E6
S2140049A0A891D9F800301BB1D4F8882093422CD0B7
S2140049B003F03EFC012868D1D9F80030002B00F047
S2140049C093801A68002A00F08F80D4F8881009684F
S2140049D08A427ED0D4F88C301A68204604F02AF931
S2140049E0D4F89CA08DF8076005460127BAF1000FA1
S2140049F062D000220DF1070311462046D047B5B11C
S214004A0037BB284602B0BDE8F0874B4B1B68002B2F
S214004A10CED0D4F88C209342CAD1484B1B68984518
S214004A2066D003F005FC01283ED001252EE0434A5F
S214004A30414BC2F80080D4F88820C9F800202046F0
S214004A40D4F88C201A6003F069FE0546002FD8D0F3
S214004A50B5FA85F040F205323321400900F092F9AC
S214004A603146204604F0F2F8354BD4F88C101B681B
S214004A70054620469847284602B0BDE8F0872E4BEC
S214004A8000221A6004F05AFB89E70025012003F093
S214004A9079FB03F0CDFB0128FBD12A4B00215B6894
S214004AA003209847002D87D0D4F89CA08DF8076087
S214004AB00025BAF1000F9CD1617D94F8DD30994253
S214004AC028BF19463246204603F0BDFD002D97D17B
S214004AD0ADE7194A12680AB31168D4F88C20126838
S214004AE0914219D0596878E7D4F88830196871E788
S214004AF006B127B90025284602B0BDE8F087D4F8ED
S214004B009C5001228DF8072065B100220DF10703A5
S214004B1011462046A847EDE70127C5E7D4F88C20C4
S214004B201268DFE7617D94F8DD30994228BF1946A8
S214004B30204603F088FDDDE7D8140020D0140020BE
S214004B401C00002024000020D4140020F8B50546E0
S214004B500E46FDF7C3F9314607462846FFF786FEA0
S214004B60044620B13846FDF761FC2046F8BD0346F2
S214004B70024631462846FFF705FF04463846FDF74D
S214004B8055FC2046F8BD00BFF8B506460C4659B39E
S214004B900B6843B11B68013326D0CB681BB18B680A
S214004BA0003B18BF01231846CB22412100F0EAF84B
S214004BB0204600F08CFC002386F8E030C6E922434D
S214004BC0E7684FF6FF724FF01C0CD8B287420DD83C
S214004BD015460C4A002313600B4A294630461360DC
S214004BE0FFF7B4FF2846F8BD0023DCE7A1680CFBFE
S214004BF00011CD89954202D2002DEAD02A46013313
S214004C00E3E700BFD4140020D8140020008B7047C0
S214004C100A7838B505461046FFF794FD60B14C7823
S214004C202046FFF78FFD38B12243530704D42846A9
S214004C30BDE8384003F044BC012038BDFFF7E8BFAC
S214004C4010B504460878FFF77DFD58B14A7810463F
S214004C50FFF778FD30B1042A04D02046BDE81040A6
S214004C6003F066BC012010BDFFF7EABF03F034BABC
S214004C7003F080BB37B504460D460192FFF766FF8A
S214004C8038B9019A2946204603B0BDE8304003F003
S214004C9059BB03B030BD04F061BA13B5044600201A
S214004CA0019100F012FCD4F89C3033B901992046EB
S214004CB002B0BDE8104003F0FCBC022002B010BDFC
S214004CC038B5044648880D4600F0FFFBD4F89C3003
S214004CD02BB929462046BDE8384003F073BC0220B5
S214004CE038BD00F0F3BB38B505460C46FDF7F6F8C0
S214004CF0296BEB6A0C402343EB62FDF797FB002021
S214004D000CB9002138BD4FF40071FBE703F02FBF4C
S214004D1003F049BF07B54FF400730A49ADF80630F3
S214004D200DF10602FFF7F4FFBDF80630B3F5007F7D
S214004D3005D1022808BF002003B05DF804FB01205F
S214004D40FAE700BF281600200846114600F0DCBA35
S214004D5003F0FABE38B50446154609B103F040FF25
S214004D6025B12046BDE8384003F03CBF38BD000002
S214004D70024B1960024B1860FEE700BF20000020BF
S214004D802C18002008B550B90548064B01601A607B
S214004D90054B1A68054B1A601868FFF7E9FF08BD4F
S214004DA02000002028180020CC1400202C180020FA
S214004DB0837C03B108470220704710B5044604F010
S214004DC01FFA20460321BDE8104003F047BAFFF75C
S214004DD0F4BF00000149FFF7EBBF00BFD991000008
S214004DE00149FFF7E5BF00BFB191000037B5837CEE
S214004DF005460C46BBB104F087FA6168019002468E
S214004E00284604F007FA206890FAA0F0000A03F09B
S214004E10D7FBA17A2089019A81F0010104F046FAB5
S214004E20002003B030BD0220FBE71FB5CDE901121C
S214004E30ADF80C3001A99DF818308DF80E30FFF74C
S214004E40D5FF05B05DF804FB0020704700207047D2
S214004E50014B1878704700BF301800202DE9F74F37
S214004E6006681C4606F007069DF830300193B31D11
S214004E7001269E400546174606F1FF380B46A1B1AF
S214004E80416804EA080BA6EB0B0A41F000595245AC
S214004E9009EB0B0118D95246184605F0DBF9BA1B88
S214004EA05A444946504405F0D5F9019B4BB13C4461
S214004EB048EA06063440EC60AB68A3421CBF0223F7
S214004EC0AB6203B0BDE8F08F1846ECE70D4BD3F8A5
S214004ED0E020D20314D50C494FF48032C3F8E82002
S214004EE0C1F8EC209A6BD1B2C2F3072299679A6791
S214004EF004229A6700229A679A679A679A679A675F
S214004F00704700BF001008400010084638B50C4C2B
S214004F10226060600D46FCF7E1FFD4F8E0305B07E6
S214004F2058BF04234FF00102A262A56058BFC4F820
S214004F30E830FDF77BFA0DB10223A36238BD00BF4F
S214004F4000100840044B1860044B40F6FF721963CB
S214004F5058635A65704700BF341800200010084098
S214004F602DE9F04F042A83B005463AD90B788361C1
S214004F704B7883618B788361CB7883610068D5F842
S214004F8008B06E6800F007004FF00108063008FA17
S214004F9000F808F1FF3909EA0B07A2F1040AA8EBAA
S214004FA00702924501F1040446F000560DD8F019A8
S214004FB02146524605F04EF90AEB0B0348EA090271
S214004FC01340AB6003B0BDE8F08F2146F0190192A4
S214004FD005F040F9019AA118AAEB080230463A44B7
S214004FE0E8E7013A032AEDD8DFE802F00B080502ED
S214004FF011F8013B836111F8013BAB6111F8013BED
S214005000AB610B78AB6103B0BDE8F08F37B5002518
S21400501000951446FFF722FF204603B030BD00007F
S214005020402938B514464FF001020DD8084DC5F892
S214005030B8200A4601460748FFF792FF34B104231A
S214005040C5F8B830002038BD1046FCE72046FAE721
S214005050001008409010084010B5FCF73FFF1B4BAF
S2140050601B491C4C01229A65C3F888201A665966AB
S2140050700721C3F884102180174C002121804FF4AB
S214005080A024C3F8E84003F1C063C3F8EC40134B18
S2140050901960134BD3F888305C0213D5114B1249B4
S2140050A01B684FF48004C1F88840596B090609D480
S2140050B093F8C6300D494FF400148C6113B10C4BB5
S2140050C0C3F8F820BDE81040FDF7B0B9001008405E
S2140050D038180020BA180020B8180020BC18002085
S2140050E000400840CC1400200040084400600844FB
S2140050F0006008460D4B07221A800D4B00221A80CE
S2140051000C4BC3F890204FF40052C3F89400C3F839
S214005110B420094AF021116402F10072A021116442
S2140051200122C3F8B820FFF797BF00BFBA180020C7
S214005130B818002000100840000008442DE9F0418F
S2140051400446A0B1404E414FFCF7C8FE3188404BA4
S21400515001F07802032C054601F07F0E1A4460D158
S214005160D7F800C0BCF1000F03D1FDF75FF90320AC
S21400517055E02CF00104386820F00100A04255D11B
S21400518000233B6023886FEA43436FEA534394420D
S214005190238040D12F4FDFF8D8C03B88ACF1800881
S2140051A0CC18083B9BB202F10801E01A614528BF03
S2140051B04146082B80B204D9B1F900E0BEF1000FD9
S2140051C03FDB9478128824493B80C2F30C02C0B2BD
S2140051D0CA6304F007043080C866C1F88430FFF75D
S2140051E075FE042C17D11D4B1D4AD3F888301D4B75
S2140051F04FF480011B68C2F888105A6B12060AD456
S21400520093F8C630184A4FF4001191611BB1174B42
S2140052100122C3F8F8202846FDF708F90020BDE86B
S214005220F081601E012898BF1446A4E7094873441D
S2140052300088E31A48BF803308389842A2DC284624
S21400524093E70A46ADE700BFB8180020BC18002058
S21400525038180020BA180020001008400040084007
S21400526000400844CC140020006008440060084653
S214005270B81800200E480F4A038812880E491A44B0
S214005280073A02F078020A4408339BB2038090780B
S2140052900A4900F007000428C1F8843004D101F55B
S2140052A040514B681B03FCD4054B1A60704700BF87
S2140052B0BA180020B818002038180020001008403F
S2140052C0BC18002010B5054C206828B1C30701D4CF
S2140052D0FFF734FF0023236010BD00BFBC1800207A
S2140052E0084B4FF48032C3F8EC2003F17C43C3F83C
S2140052F0E420D3F88030C3F30C03782B01D8FFF7F3
S214005300E5BD7047001008442DE9F04705460E46F7
S214005310FCF7E4FD534B544C1A888146534802F080
S2140053207801032D078802F07F03214417D15048E7
S21400533005688DB9D519073D05F078052544234441
S214005340EB1A48BF8033BB4210DB4846FDF76EF8C9
S21400535000252846BDE8F08725F00105EFE7012D7A
S21400536002D0022DEBD1083F0D46E8E7002E48D0CC
S2140053708D424AD13F4AD76BBFB23E490A6B02F014
S214005380070A0AF106024FF0010A0AFA02FAD1F8F1
S2140053908020C2F30C029A421FFA8AF847DDB5F95C
S2140053A000302C88002BD0DBAB78C4F30C0408F15B
S2140053B0FF3203F00703E41B48EA02021440052B01
S2140053C03370A4B22BD824B2E04340F2BB3204219F
S2140053D0C00FFFF7D7FC7480EB78337408F1FF3307
S2140053E01F40254B1B68DA19B260A2B217FA84F484
S2140053F05445CBBFA8EB07080023A6F80480B2806C
S214005400F3604846FDF712F8A3E7A5F10802A242AA
S21400541038BF05F178021788C7F30C07ADE7174BBE
S214005420DB6C002B0CBF00230623E41ACBE78B6B48
S214005430134A08F1FF34DB1B48EA04041C40A1B2FF
S214005440536824B259B9C3F30363032B0CBF082374
S21400545000233370D2F8903071801B0ABDE7082312
S214005460F7E700BFB818002038180020BA18002048
S214005470BC18002000100840341800200000084027
S21400548000400840431C08D00449D1F83C311B0CAE
S2140054901B0480B20343C1F83C317047004008400B
S2140054A010B5044608680A46FFF7ECFFD4F88C30BF
S2140054B04BB15B693BB11168013104BF6FF001016C
S2140054C0116012681A60002010BD70477047742281
S2140054D031210120FFF756BC38B50D46044600F0D2
S2140054E039FFAC4042F2107364095C436423B0FB9E
S2140054F0F3F0B4FBF0F038BD034B1A689B880260EB
S21400550083800020704700BF320000200F4B022827
S214005510D3F8883104D183F40010C0F340507047AC
S214005520012805D113F4400F0CBF0120002070475E
S21400553050B9074AD2F8D40010F0010005D083F421
S2140055408000C0F3805070470020704700400E4037
S2140055500081E00F0B4B5B88B3F5E16F8BBF5A23DE
S214005560C8235022782298428CBF172310230B7032
S214005570054B1B7823B1904294BF00200120704752
S21400558018467047320000203000002013B5234B29
S2140055901B78032B04463ED00DF10701FFF7DAFF18
S2140055A01E2C8CBF1E491F499DF807204FF0010393
S2140055B08CBF01240024C1F8083170B1194B4DF698
S2140055C00171C3F80411120203F1007342F4404261
S2140055D0C3F80421144BA3F8D420134991F8D8201B
S2140055E022F00102024322F0020242EA4402D3B24F
S2140055F00E4A81F8D83012786AB9B1F8D420A1F8EA
S214005600D62023F0040242EA800323F0080343EA8C
S214005610C40381F8D83002B010BD00BF32000020AD
S2140056200040084600400844001F0021C218002021
S214005630084B094AD3F88831DB4303F4FE1343F4DE
S2140056400053B3FA83F30E33A3EB4313013B1370FB
S214005650704700BF00400E403A00002001280CD0E2
S214005660022802D020B100207047054B18787047FA
S214005670034B18780430C0B270470720704700BF4D
S2140056803A00002002289ABF014B185CFF207047A2
S21400569090A6000030B51F23B0FBF3F35C1CE5B208
S2140056A0C3EB43134FF0FF34AC40C01AE443013061
S2140056B0E4B2C0B21460086030BD00002DE9F743C4
S2140056C0404E414F96F800901546404AD2F8C82002
S2140056D0B9F1010F0446884607EA020706D147EAF1
S2140056E0006788F8000000232B6052E0384A1278E2
S2140056F0904228BF1446002B14BF042300232344E3
S2140057000B708CB3013CE4B24FF030632B606A46FA
S214005710204601A9FFF7BEFFDDE900302D4A98F8C4
S21400572000C0127847EA006747EA833747F47F5796
S21400573047F00807D2B1284A2849B3FA83F3B9F1EB
S214005740020F18BF0A46202BC3F11F0012D0135CAD
S214005750D9B22A6822F07F43BCF1000F0CD143F087
S214005760306343F00403BFE71D4BCFE7FF214FF044
S214005770FF30EEE7FF21ECE7013003D0481EC0B251
S214005780FD281BD922F07F4222F0040242F07F421D
S2140057902A607288B2F5E16F8CBF5A22C82227F4BD
S2140057A07F57944227F008079ABF380A00F47F50C4
S2140057B043F6C870384303B0BDE8F08343EA01639C
S2140057C0CFE700BF320000203F00C0E0001F0021EE
S2140057D03A000020C5180020B083E00FB883E00F21
S2140057E00400000B73B50446C820FFF7CFFE2C4B11
S2140057F02C4D1878032801D0FF2C03D1FF202870E9
S21400580002B070BD01282CD1072C204628BF0720E7
S21400581001284FF0000301AA0DF1030138BF012053
S214005820FFF74CFF0446204B204E019AC3F8582140
S214005830C6F8C8409DF803002870FFF7A7FE019A37
S214005840130203F4E06343EA1263194AA6F8D03061
S21400585012781AB9C6F8CC40A6F8D2309DF80300E4
S214005860CEE790B9042C14D803460646201A01AA9F
S2140058700DF10301C0B2FFF721FF4FF48003044689
S2140058805EB10C4AC2F80831CDE700231E46184622
S214005890ECE701231E460420E8E7074AF2E700BFCC
S2140058A0320000203100002000400840001F002188
S2140058B0C2180020004008460040084408B500F022
S2140058C0BFFF094B094A002808BF1A46136823F48D
